:020000040800F2
:1000000038070020050100088B270008752200082A
:1000100089270008F50900084B2C000800000000A3
:100020000000000000000000000000008729000818
:100030002F0A00080000000085290008892900080F
:100040001F0100081F0100081F0100081F01000810
:100050001F0100081F0100081F0100081F01000800
:100060001F0100081F0100081F010008F90900080E
:100070001F0100081F0100081F0100081F010008E0
:100080001F0100081F0100081F0100081F010008D0
:100090001F0100081F0100081F0100081F010008C0
:1000A0001F010008092A00081F0100081F0100089D
:1000B0001F0100081F0100081F0100081F010008A0
:1000C0001F0100081F0100081F0100081F01000890
:1000D0001F0100081F0100081F0100081F01000880
:1000E0001F0100081F0100081F010008DFF810D0E1
:1000F00000F0AAFB0048004775350008AFF3008008
:10010000380700200648804706480047FEE7FEE71C
:10011000FEE7FEE7FEE7FEE7FEE7FEE7FEE7FEE7B7
:10012000052A0008ED000008202A04DB203A21FA05
:1001300002F00021704721FA02F3D040C2F1200200
:100140009140084319467047D2B201E000F8012BF4
:10015000491EFBD270470022F6E710B513460A4647
:1001600004461946FFF7F0FF204610BD80EA010261
:1001700010B502F00043400022D04A001FD0010E0B
:1001800001EB1261C0F35600C2F3560240F40000C6
:1001900042F40002A0FB022000047F39140400D0C6
:1001A000401C50EA124001D44000491EC2B20C0665
:1001B00004EBD010401C4008802A02D003E000204D
:1001C00010BD20F00100002900DA0020184310BD06
:1001D00030B480EA010202F0004530F0004221F024
:1001E000004013D090B1C30DD40DC2F31601C0F37B
:1001F0001600E41A41F4000140F400027D349142FB
:1002000001D3641C00E04900002C02DA30BC00205D
:1002100070474FF400000023914201D3891A034331
:1002200040084FEA4101F7D151B1914202D14FF05C
:10023000004105E002D24FF0010101E06FF0010141
:1002400003EBC450284430BC00F023B92DE9FE4F25
:1002500081EA030404F0004421F0004100944FF0CF
:10026000000B23F0004350EA01045ED052EA03047D
:100270005BD0C3F30A54C1F30A552C44A4F2F334FF
:100280000194A0FB0254C1F3130141F48011C3F3A4
:10029000130343F4801301FB024400FB034E840A62
:1002A000970A44EA815447EA8357A4FB07680295FA
:1002B0008D0A05FB07854FEA932C04FB0C54270598
:1002C000029D4FEA065847EA1637B5EB08056EEB74
:1002D000070C870E920E47EA811742EA8312A7FBAA
:1002E0000201B6EB0B0164EB00042B0D43EA0C3367
:1002F0005E1844EB1C50DA465146E7FB0201C5F399
:1003000013044FEA0B3343EA14534FEA0432019CBF
:1003100043EA0603A4F10C040294009CCDE900B466
:1003200000F0FDF803B0BDE8F08F00200146F9E7CA
:1003300070B521F0004303430CD0C1F30A550024EB
:10034000D5EB040564EB0403D617AD1AB34102DB09
:100350000020014670BD201841EB025170BD96236C
:100360000022114600F09EB870B5C1F30A5201F0A8
:1003700000450024C1F3130140F2FF3341F4801122
:100380009A4201DA002070BD40F233439A42A2F251
:10039000334203DC5242FFF7C7FE00E090402C439B
:1003A000F1D0404270BD00F0004230F000400AD071
:1003B000C10D01F56071C0F3160042EA0151C20897
:1003C00040071143704700200146704701F0004389
:1003D00030B421F0004150EA010206D00A0DA2F526
:1003E0006072C1F31301002A02DC30BC00207047A8
:1003F000440F44EAC104C100E01830BC00EBC25015
:1004000000F047B830B50B460146002020220124F9
:1004100009E021FA02F59D4205D303FA02F5491BD2
:1004200004FA02F52844151EA2F10102F1DC30BDE8
:100430002DE9F05F0546002092469B468846064619
:10044000814640241BE02846414647462246FFF7A6
:100450006BFE53465A46C01A914110D311461846B6
:10046000224600F003FA2D1A67EB01084F46224698
:100470000120002100F0FAF917EB00094E41201E7F
:10048000A4F10104DFDC484631462A464346BDE874
:10049000F09F0029A8BF7047401C490008BF20F00A
:1004A0000100704710B4B0FA80FC00FA0CF050EA7A
:1004B000010404BF10BC704749B1CCF1200421FAFB
:1004C00004F411FA0CF118BF012121430843A3EBF6
:1004D0000C01CB1D4FEA00614FEA102042BF002003
:1004E00010BC704700EBC35010440029A4BF10BCDF
:1004F0007047401C490008BF20F0010010BC704745
:1005000010B5141E73F1000408DA401C41F100011B
:1005100092185B411A4301D120F0010010BD2DE972
:10052000F04D92469B4611B1B1FA81F202E0B0FA69
:1005300080F22032904600F099F904460F4640EAD6
:100540000A0041EA0B0153465A46084313D01146AC
:1005500053EA010019D0C8F140025046FFF7E4FD0C
:1005600005460E4650465946424600F07FF908437C
:1005700005D0012004E020463946BDE8F08D00207A
:10058000054346EAE0762C4337430A986305E40ABC
:10059000A0EB08000022FD0A44EA47540A3002D5C5
:1005A00000200146E9E7010510196941DDE9084528
:1005B00000196941BDE8F04DA2E72DE9FE4F8046E4
:1005C00081EA0300C00F0C46009021F0004123F0A7
:1005D0000045B8EB0200A94105D2404621469046AD
:1005E0001C460B46024623F00040104347D0270D1F
:1005F000C7F30A00C3F30A510290401A0190402841
:100600006BDAC3F3130040F4801B0098924620B1CC
:100610000023D2EB030A63EB0B0B01985946C0F1A0
:100620004002504600F022F906460D465046594613
:10063000019A00F02AF910EB08006141002487EAD2
:10064000115284EAE7731A4340D0009A62B3019AC8
:10065000012A4FEA075215DC001B61EB02014FF043
:10066000004202EA0752CDE90042001C41F5801128
:1006700032462B46FFF753FF03B0BDE8F08F4046EC
:100680002146F9E7001B61EB0201001C41F58013D4
:1006900000185B412018A2F5001747EB030140EA60
:1006A000D570B6196D4111E06D084FEA360645EA7E
:1006B000C0754FEA0752001B61EB0201001C41F5B7
:1006C000801149084FEA30000019514132462B464B
:1006D00003B0BDE8F04FFFF713BF009801224000C0
:1006E0000023D0EB020263EBE073009821464FEA4F
:1006F000E074B8EB000061EB0401E9E783F000432C
:100700005BE781F0004158E72DE9F04D81EA0304F1
:1007100004F0004B21F0004514464FF0000A23F08E
:10072000004150EA050220D054EA01021DD0C5F371
:100730000A570246C5F31303C1F31300C1F30A5667
:1007400040F4801543F48013A7EB0608101BD6462F
:1007500008F2FD3873EB050002D308F1010801E04F
:1007600092185B41B8F1000F03DA00200146BDE8A2
:10077000F08D00204FF48011064684460EE0171BD2
:1007800073EB050705D3121B63EB050306434CEA25
:10079000010C49084FEA300092185B4150EA01070A
:1007A000EDD152EA030012D082EA040083EA050187
:1007B000084305D0101BAB4106D20122002306E0FE
:1007C00000224FF0004302E06FF0010253101AEBD9
:1007D00006004CEB085110EB0A0041EB0B01BDE8A1
:1007E000F04DFFF78DBEC1F30A52C1F3130140F281
:1007F000FF3341F480119A4202DA0020014670472B
:1008000040F233439A42A2F2334202DC5242FFF7F3
:100810008BBC00F02BB8000030B5041E71F1000451
:1008200004DB4FF00044404264EB0101141E73F1FD
:10083000000405DB1C464FF00043524263EB040307
:10084000994208BF904230BD064C074D06E0E06873
:1008500040F0010394E8070098471034AC42F6D307
:10086000FFF748FC043E0008243E0008202A04DB71
:10087000203A00FA02F1002070479140C2F12003B3
:1008800020FA03F3194390407047202A06DBCB1768
:10089000203A41FA02F043EAE07306E041FA02F33B
:1008A000D040C2F120029140084319467047000031
:1008B00070B5044600688168C943C90717D18168CB
:1008C00021F00101816000F0E3FC05460AE000BF71
:1008D00000F0DEFC401B022804D920688068C04379
:1008E000C00706D020688068C043C007F0D0002051
:1008F00070BDA06A40F01000A062E06A40F0010004
:10090000E062012070BD10B50146406A826A12F0B3
:10091000500F05D0006A026BBDE810400846104732
:10092000816A41F40071816201688968C1F34241C2
:1009300007290CD1017B51B9816A21F48071816250
:10094000816AC90403D4816A41F00101816200F027
:10095000EFF810BD10B5406A816A41F04001816234
:10096000C16A41F00401C16200F01BF910BD10B56D
:10097000406A00F015F910BDF8B50026044600964F
:1009800000688168C943C9072DD0816841F0010121
:100990008160164816490068B0FBF1F000E0401E87
:1009A00000900028FBD100F073FC054616E000BF64
:1009B00000F06EFC401B022810D920688068C043FC
:1009C000C0070BD0A06A40F01000A062E06A40F0BF
:1009D0000100E06284F824600120F8BD206880688E
:1009E000C043C007E4D10020F8BD0000140000207F
:1009F00040420F00FEE70000014800F031BA00005D
:100A00001002002030B590F840500124AC40C56B76
:100A10006C60046863604368102B036803D09960BE
:100A20000068C26030BD9A600068C16030BD704728
:100A300072B6FEE7F8B50024009490F8242025460D
:100A4000012A12D0012280F824204A681F23072A95
:100A50000DD20668776B521E02EB820293409F43D1
:100A60000B6893401F43776319E00220F8BD0668C6
:100A70000D2A0AD2376BD21F02EB820293409F43AA
:100A80000B6893401F43376309E0F76A0D3A02EBA6
:100A9000820293409F430B6893401F43F7620A68AA
:100AA000072306680A2A0AD3F7680A3A02EB4202C9
:100AB00093409F438B6893401F43F76008E037697A
:100AC00002EB420293409F438B6893401F43376180
:100AD0000A68102A01D0112A20D1124B02689A42CA
:100AE00017D193681B0219D4936843F400039360F1
:100AF0000968102912D10C490C4A0968B1FBF2F1BE
:100B000001EB8101490000E0491E00910029FBD161
:100B100004E0816A41F020018162012480F82450C0
:100B20002046F8BD002401401400002040420F0080
:100B300010B500681349884222D10020124A0146AC
:100B400052F82130491C89B218446429F8D3FFF7C0
:100B500006FC0E49FFF73CFBFFF725FC4FF0663221
:100B60000B4BFFF773FB6FF00B02FFF7E1FBFFF797
:100B70002DFC084908600849FFF7F8FA07490860A2
:100B800010BD000000240140500000200000C842B9
:100B900066660A400000002000007A44040000203D
:100BA000704770472DE9F0414FF0000704003D46C3
:100BB0007ED0A06A002628B9E66284F82460204628
:100BC00000F07EF82046FFF773FEA16AC90600D444
:100BD00020B1A06A40F01000A06269E0A16A21F48F
:100BE000885141F00201A1626268E169237B0A43F6
:100BF00047EA43010A43A1684FF48077B94209D01C
:100C0000012907D05FF0000194F814C0BCF1010F76
:100C100002D00AE03946F7E7F3B1A36A43F02003B4
:100C2000A362E36A43F00103E3622368D3F804C0DC
:100C30002CF4694C4CEA010CC3F804C021688B68A1
:100C4000DFF870C003EA0C0313438B60A168B9425C
:100C50000BD0012909D00CE0DFF85CC0A3690CEBD4
:100C600043330B4343F40061DFE7218A0D05A5F50B
:100C700080152168CB6A23F470032B43CB62216873
:100C800089680E4B1940914208D1E662A16A21F0B1
:100C9000020141F00101A162BDE8F081A06A20F0EB
:100CA000020040F01000A062E06A40F00100E06243
:100CB0000120F1E7FDF7E1FF00E0FFFFFE0E1FFF5F
:100CC00070B586B0002605460096019602960396FA
:100CD00000681B49884230D11A49886940F4007085
:100CE0008861886900F400700490886940F0080009
:100CF00088618869694600F008000490022000902D
:100D000003200190104800F0CDF9114C0F48C4E9C0
:100D100000068020C4E902608000206180006061DC
:100D20002020A0614FF44050E061204600F042F9DD
:100D300008B1FFF77DFE2C62656206B070BD000051
:100D40000024014000100240000C01400800024055
:100D5000100200202DE9F047894604463B4900680F
:100D60003B4F0E1D9046884201D0B84207D13068F3
:100D700010F4702F03D001252846BDE8F08794F8C1
:100D8000240001280CD0012084F824002046FFF71D
:100D9000F3FD05004FF0000004D084F82400EBE7D9
:100DA0000220EAE7A16A40F60162914341F48071B2
:100DB000A1622168B94218D1326812F4702F14D0A0
:100DC000A16A41F48011A1623168490505D5A16A83
:100DD00021F4005141F48051A162A16AC9040AD5ED
:100DE000E16A21F00601E16206E0A26A22F48012C3
:100DF000A2624968E9E7E06284F82400216A1548A4
:100E00008862216A1448C862216A1448086321680C
:100E10006FF0020008602068816841F48071816091
:100E2000216843464A464C31206A00F0F1F82068B8
:100E30008168C1F342410729816803D041F48011E0
:100E4000816099E741F4A001FAE700000024014025
:100E500000280140070900086F090008550900082B
:100E60002DE9F05FC16B0C6801680B68D0F840C0D9
:100E7000042202FA0CF2494DDFF824A1494E4A4FF0
:100E8000DFF828B1DFF828E122422CD05A072AD512
:100E90000A68920603D40A6822F004020A60016814
:100EA000A94201D1042219E0514501D1402215E0A7
:100EB000B14202D14FF4806210E0B94202D14FF446
:100EC00080420BE0594502D14FF4802206E0714583
:100ED00002D14FF4800201E04FF080622F490839BF
:100EE0004A60C16A3BE04FF0020808FA0CF818EAC1
:100EF000040F4FF000094FF0010235D05FEA83780C
:100F000032D50B689B0605D40B6823F00A030B60EF
:100F100080F821200168A94201D1022219E051453F
:100F200001D1202215E0B14202D14FF4007210E04D
:100F3000B94202D14FF400520BE0594502D14FF4AF
:100F4000003206E0714502D14FF4001201E04FF08B
:100F50000072124908394A6080F82090816A00299D
:100F60001AD0BDE8F05F0847082505FA0CF52542C0
:100F700012D01B0710D50B6823F00E030B6090F8FE
:100F80004010C36B02FA01F15960826380F821209E
:100F900080F82090016BE2E7BDE8F09F0800024076
:100FA0001C00024030000240440002405800024051
:100FB0006C00024030B528B308C813491422194404
:100FC000B1FBF2F18900C1631049816302214177CD
:100FD0001A6843F6F0718A43D0E900142143D0E93E
:100FE00002452C4321430469214344692143846918
:100FF00021431143196000214163012242770177A7
:10100000084630BD012030BDF8FFFDBF00000240A2
:1010100070B5044690F82000002501280CD001206E
:1010200084F8200094F821600020012E06D084F876
:1010300020000225284670BD022070BD022684F8DB
:101040002160A0632068066826F00106066020463D
:10105000FFF7D8FCE06A00282068016802D041F060
:101060000E0106E021F0040101602068016841F0F2
:101070000A0101602068016841F001010160D9E7BF
:1010800070B5044600F004F90546601C02D004481F
:101090000078044400F0FCF8401BA042FAD370BD75
:1010A000080000202DE9F84FDFF8B8910024A9F1DD
:1010B000040B23460F2709F1040AABF1040EC9E023
:1010C0000125A5402A40AA427DD1674ED1F804C02F
:1010D000ACEB0608B44532D014DCBCF1030F3AD0B7
:1010E00009DCBCF1000F2AD0BCF1010F1CD0BCF10F
:1010F000020F31D11DE0BCF1110F17D0BCF1120F5E
:101100002AD119E0B8F5881F19D006DCB8F5803F60
:1011100015D0B8F5801F1FD111E0B8F5001F0ED013
:10112000B8F5041F18D10AE0CB6815E0CB681B1D89
:1011300012E0CB6808330FE0CB680C330CE08B680F
:101140002BB1012B4FF0080303D0456104E00423C9
:1011500002E0056100E00023FF2A01D8064601E015
:1011600000F104064FEA840501D9A5F12005D6F85F
:10117000008007FA05FC28EA0C0803FA05F548EA9E
:101180000508C6F800804D68ED0062D5374DAE69A0
:1011900046F00106AE61AD6924F0030605F00105D5
:1011A0000095334D06EB050CDCF80850A607360F0A
:1011B00007FA06F825EA0805DFF8B880404503D1AC
:1011C0004FF0000817E044E0DFF8AC80404502D162
:1011D0004FF001080FE0DFF8A480404502D14FF046
:1011E000020808E0DFF89880404502D14FF003087C
:1011F00001E04FF0040808FA06F848EA0508CCF8C0
:1012000008804D68D9F80060ED024D4601D51643BF
:1012100000E096432E604D68DAF80060AD02554656
:1012200001D5164300E096432E604D68DBF8006060
:10123000AD035D4601D5164300E096432E604D6830
:10124000DEF80060ED03754601D5164300E09643D5
:101250002E60641C0D682A46E5407FF431AFBDE87E
:10126000F88F000008040140000011100010024037
:101270000000014000080140000C01400010014046
:10128000001401400AB1016170470904FBE7000046
:1012900001488068704700000800002070B5040015
:1012A00025D094F83D00002520B984F83C50204614
:1012B00000F050F9242084F83D002068016821F0F6
:1012C000010101602068016841F40041016020686B
:1012D000016821F40041016000F00EFB4D4A616895
:1012E000914201D84C4900E04C49884201D201208A
:1012F00070BD4B492368B0FBF1F15E6826F03F06F4
:101300000E435E606368934206D94FF49673594367
:101310004FF47A73B1FBF3F12368491C1E6A26F07F
:101320003F06314319626168914210D84900401E5E
:10133000B0FBF1F2521CC2F30B02042A01D20420CA
:1013400022E0B0FBF1F0401CC0F30B001CE0A268EF
:10135000F2B301EBC10303EB0116431EB3FBF6F33B
:101360005B1C43F480431B0549D092B301EBC102DF
:1013700002EB0111401EB0FBF1F0401CC0F30B006A
:1013800040F4804040F400402168CA694CF6FF7385
:101390009A431043C861D4E90710014320680268EA
:1013A00022F0C00211430160D4E903010143206827
:1013B000826848F2FF339A4311438160D4E9050102
:1013C00008432168CA6822F0FF021043C86001E0A8
:1013D0000EE016E02068016841F00101016025641B
:1013E000202084F83D00256384F83E50002070BD25
:1013F00001EB4106431EB3FBF6F35B1CB3E7012090
:10140000C2E701EB4101401EB0FBF1F0401CC0F30C
:101410000B00B7E7A086010080841E0000093D0094
:1014200040420F002DE9FF4F83B09A46DDE9119746
:1014300093460446DDF84080FFF72AFF054694F8FE
:101440003D0020287FD119230122404920460095E4
:1014500000F0A8FF002876D194F83C00012872D053
:10146000012084F83C0020680168C90703D10168A5
:1014700041F0010101602068016821F40061016010
:10148000212084F83D00402084F83E000026266498
:10149000C4F82480A4F82A90608D20852C48E0624E
:1014A000CDE9007553465A462046049900F0FAFEED
:1014B00070B930E02A463946204601F019F858B193
:1014C000206C042804D12068016841F40071016097
:1014D000012007B0BDE8F08F606A216800780861DC
:1014E000606A401C6062218D491E89B22185628D2F
:1014F000521E628522685369DB435B070BD469B1D6
:1015000000781061606A401C6062208D401E20855A
:10151000608D401E6085208D0028CBD12A4639463B
:10152000204600F013FF0028CAD154F83D0B016893
:1015300041F400710160202004F81E09E677667707
:101540000020C6E7FFE70220C3E70000020010000A
:101550000000FFFF10B586B00021009101910291BB
:10156000039100680F4988421AD10F4CA06940F0DE
:101570000800A061A069694600F008000490C0203E
:10158000009012200190032003900848FFF78AFD85
:10159000E06940F40010E061E06900F4001004909C
:1015A00006B010BD0054004000100240000C014085
:1015B0000248816802781144816070470800002069
:1015C000074810B5016841F010010160032000F0E8
:1015D00075F80F2000F006F800F024F8002010BD88
:1015E0000020024070B50D4D04464FF47A71287802
:1015F000B1FBF0F00A490968B1FBF0F000F042FBE2
:1016000048B9102C07D200222146501E00F036F8AF
:1016100000206C6070BD012070BD0000080000203B
:10162000140000200C4808B5816941F00101816176
:10163000816901F001010091C16941F08051C161EE
:10164000C06900F0805000900448416821F0E061DA
:1016500041F00071416008BD0010024000000140EF
:10166000002809DB00F01F020121914040098000A1
:1016700000F1E020C0F8001170470000F0B40E4BFC
:101680001B680C46C3F30223C3F10705042D00D9E0
:101690000425191D072901D2002300E0DB1E0126C5
:1016A00006FA05F1491E214099409E40761E1640DB
:1016B0003143F0BC01F0DEBA0CED00E0064900F069
:1016C000070208684FF6FF03184040EA0220034A69
:1016D00010430860704700000CED00E00000FA05C0
:1016E0002DE9F84305460078354CC00754D0E06931
:1016F0000026C00008D4E06940F08050E061E06955
:10170000012600F0805000902E480168C90512D4CF
:101710000168804641F480710160FFF7B9FD07461A
:1017200005E000BFFFF7B4FDC01B642823D8D8F83C
:101730000000C005F6D5206A10F4407021D0A988B9
:1017400001F4407181421CD0206A1F49012220F41B
:1017500040700A6000220A602062C00711D0FFF7C3
:1017600097FD074641F2883808E000BFFFF790FD7B
:10177000C11B414502D90320BDE8F883206A8007D8
:10178000F4D5206A696820F44070084320621EB1D5
:10179000E06920F08050E0612878800705D5606816
:1017A000A96820F44040084360602878C00605D549
:1017B0006068E96820F48000084360600020DBE78F
:1017C0000010024000700040400442422DE9F04702
:1017D0000F46050061D0434E306800F00700B84264
:1017E00009D2306820F0070038433060306800F0DC
:1017F0000700B84251D128683B4C810712D54007F9
:1018000003D5606840F4E06060602878000703D585
:10181000606840F4605060606068A96820F0F00083
:10182000084360602878C00728D06868012810D075
:101830002168022810D0890700292EDA616821F07A
:10184000030101436160FFF723FD804641F28839BF
:101850000DE021688903EFE78901EDE7FFF718FD47
:10186000A0EB0801494502D90320BDE8F087606874
:10187000696800F00C00B0EB810FEFD1306800F028
:101880000700B8420BD9306820F0070038433060B9
:10189000306800F00700B84201D00120E5E7287861
:1018A000400705D56068E96820F4E060084360609F
:1018B0002878000706D56068296920F4605040EA5E
:1018C000C100606000F028F86168084AC1F30311A4
:1018D000515CC8400649086006480068FFF782FE70
:1018E0000020C2E70020024000100240E23500085C
:1018F000140000200C0000200448054900684968D5
:10190000044AC1F30221515CC84070471400002012
:1019100000100240F23500080E4A51680E4801F0EE
:101920000C03042B11D0082B0FD10C48C1F38343B7
:10193000C903C05C0AD55168084AC1F34041921EF0
:10194000515C054A5043B0FBF1F0704704494843ED
:10195000704700000010024000127A00D2350008E3
:1019600000093D002DE9F84F040070D02078C04DEB
:10197000C00749D06868C0F38100012807D06868B3
:10198000C0F38100022809D16868C00306D5286821
:10199000800339D560680028E7D035E06068B0F58D
:1019A000803F0BD010B1B0F5A02F11D0286820F4E3
:1019B00080302860286820F4802002E0286840F405
:1019C00080302860606890B1FFF762FC06460AE04C
:1019D000286840F480202860F0E700BFFFF758FC3B
:1019E000801B642873D828688003F7D50CE0FFF7C4
:1019F0004FFC064605E000BFFFF74AFC801B642849
:101A0000F0D828688003F7D420789A4E80074FF0EA
:101A100001094FF0000839D5686810F00C0F07D0A5
:101A20006868C0F38100022809D16868C00306D441
:101A30002868800714D52069012808D110E02069A2
:101A4000B0B1C6F80090FFF723FC074605E00AE1B5
:101A5000FFF71EFCC01B0228C4D828688007F7D5F2
:101A60002868616920F0F80040EAC10028600DE0B4
:101A7000C6F80080FFF70CFC074604E0FFF708FCFF
:101A8000C01B022823D828688007F7D420780007D5
:101A90002CD57948A169D9B1C0F80090FFF7F8FBBF
:101AA000074604E0FFF7F4FBC01B02280FD8686A62
:101AB0008007F7D571484FF4FA510068B0FBF1F098
:101AC000009000BF0098411E0091FAD20EE080E025
:101AD000C0F80080FFF7DCFB074604E0FFF7D8FB07
:101AE000C01B022875D8686A8007F7D420784007A1
:101AF00060D5E8690027C00008D4E86940F080504C
:101B0000E861E869012700F0805000905C480168B6
:101B1000C90513D40168834641F480710160FFF761
:101B2000B7FB824606E000BFFFF7B2FBA0EB0A005E
:101B300064284ED8DBF80000C005F5D5E068012820
:101B40000AD008B1052813D0286A20F001002862C5
:101B5000286A20F0040002E0286A40F001002862B0
:101B6000E06841F2883B98B1FFF792FB82460BE0B8
:101B7000286A40F004002862EEE700BFFFF788FB08
:101B8000A0EB0A0159455AD8286A8007F6D50CE01F
:101B9000FFF77EFB824605E0FFF77AFBA0EB0A0128
:101BA00059454CD8286A8007F6D41FB1E86920F05F
:101BB0008050E861E06988B36968C1F38101022956
:101BC00044D00228C6F8608004D0FFF761FB0446C9
:101BD00038E034E0FFF75CFB074604E0FFF758FB12
:101BE000C01B02282BD828688001F7D4206AB0F5E2
:101BF000803F05D16868A16820F400300843686020
:101C0000D4E908010843696821F474110843686045
:101C1000C6F86090FFF73CFB044606E025E000BFF5
:101C2000FFF736FB001B022809D828688001F7D58A
:101C30001BE000BFFFF72CFB001B022802D903208A
:101C4000BDE8F88F28688001F4D40EE00128F7D0B1
:101C50006868226A00F48031914204D1616A00F41C
:101C60007010884201D00120EAE70020E8E7000078
:101C70000010024000004242800442421400002052
:101C80000070004010B5401EB0F1807F01D30120EC
:101C900010BD4FF0E02460610F21601700F0EAFFF3
:101CA0000020A06107202061002010BD7047704710
:101CB00070B590F83C20012A26D0012480F83C40E1
:101CC000022280F83D2003685A689D6822F0700661
:101CD0000A6832435A600D4B02689A4208D0B2F14A
:101CE000804F05D00A4B9A4202D00A4B9A4204D147
:101CF000496825F080031943916080F83D40002138
:101D000080F83C10084670BD022070BD002C0140D8
:101D1000000400400008004010B5040003D094F80F
:101D20003D0010B107E0012010BD002084F83C0008
:101D3000204600F01FF8022084F83D00211D206895
:101D400000F068FE012084F8460084F83E0084F824
:101D50003F0084F8400084F8410084F8420084F891
:101D6000430084F8440084F8450084F83D000020D6
:101D700010BD000008B5114A01681148914211D107
:101D8000816941F4006181618069002200F4006092
:101D9000009011461920FFF771FCBDE8084019209A
:101DA000FFF75EBCB1F1804F07D1C16941F001017D
:101DB000C161C06900F00100009008BD002C014025
:101DC0000010024090F83D10012901D00120704719
:101DD000022180F83D100168CA6842F00102CA6021
:101DE00000680B49884208D0B0F1804F05D00949FE
:101DF000884202D00849884204D1816801F0070175
:101E0000062903D0016841F00101016000207047FC
:101E1000002C0140000400400008004070B504465A
:101E200090F83C000025012817D0012684F83C607A
:101E3000022084F83D002068826822F0770222F4B4
:101E40007F4282600868502838D00DDC20284FD0AF
:101E500005DC90B3102811D14AE0022070BD302873
:101E600046D040280AD13BE060282FD070280DD002
:101E7000B0F5805F03D0B0F5005F12D0012584F883
:101E80003D60002084F83C00284670BDCB68D1E955
:101E90000121206800F001FE2068816841F077018F
:101EA00009E0CB68D1E90121206800F0F6FD206847
:101EB000816841F480418160E1E719E0CA684968BE
:101EC000206800F09FFE5021206806E0CA6849683B
:101ED000206800F0A8FE6021206800F0E8FDCEE751
:101EE000CA684968206800F08DFE40212068F4E748
:101EF000226801461046F0E7704770B50446006856
:101F000001694FF00005C943890715D4C168C94369
:101F1000890711D4E91E01610120207720688069BA
:101F20008007204602D0FFF7E7FF04E000F0BCF88E
:101F3000204600F04EF9257720680169C94349071A
:101F400017D4C168C943490713D46FF00401016174
:101F5000022020772068806910F4407F204602D05C
:101F6000FFF7CAFF04E000F09FF8204600F031F9C7
:101F7000257720680169C943090716D4C168C94398
:101F8000090712D46FF0080101610420207720684E
:101F9000C0698007204602D0FFF7AEFF04E000F0E2
:101FA00083F8204600F015F9257720680169C943B8
:101FB000C90617D4C168C943C90613D46FF010010C
:101FC0000161082020772068C06910F4407F204616
:101FD00002D0FFF791FF04E000F066F8204600F021
:101FE000F8F8257720680169C943C90708D1C16895
:101FF000C943C90704D1891E0161204600F038F9A0
:1020000020680169C943090609D4C168C9430906A2
:1020100005D46FF0800101612046FFF747FE20687C
:102020000169C943490609D4C168C943490605D4B1
:102030006FF040010161204600F01BF92068016942
:10204000C94389060BD4C168C943890607D46FF018
:10205000200101612046BDE87040FFF728BE70BD39
:1020600000B585B0002100910191029103910068B3
:10207000B0F1804F11D10A48816941F004018161BA
:102080008069694600F0040004900120009002205D
:10209000019003900348FFF705F805B000BD00006C
:1020A0000010024000080140704770B5044690F8E7
:1020B0003C0000260D4601280FD0012084F83C008A
:1020C0006AB1042A1DD0082A2FD00C2A3FD001263D
:1020D000002084F83C00304670BD022070BD2068AE
:1020E00000F0EEFC2068816941F008018161206800
:1020F000816921F004018161206881692A691143A5
:1021000011E0206800F004FD2068816941F400615D
:1021100081612068816921F4806181612068816921
:102120002A6941EA02218161D2E7206800F01CFDA2
:102130002068C16941F00801C1612068C16921F0CE
:102140000401C1612068C1692A69114311E0206856
:1021500000F036FD2068C16941F40061C16120686A
:10216000C16921F48061C1612068C1692A6941EABD
:102170000221C161ACE710B5040003D094F83D0022
:1021800010B107E0012010BD002084F83C0020467B
:1021900000F01EF8022084F83D00211D206800F0A8
:1021A00039FC012084F8460084F83E0084F83F00A2
:1021B00084F8400084F8410084F8420084F8430029
:1021C00084F8440084F8450084F83D00002010BDE8
:1021D0007047704710B50446022249B104290ED059
:1021E000082913D094F84100012816D0012010BD11
:1021F00094F83E000128F9D184F83E200FE094F8CD
:102200003F000128F2D184F83F2008E094F8400014
:102210000128EBD184F8402001E084F8412001221C
:10222000206800F02DFC0F492068884203D1426CE1
:1022300042F4004242642068884208D0B0F1804FE6
:1022400005D00949884202D00849884204D18168F2
:1022500001F00701062903D0016841F00101016086
:10226000002010BD002C0140000400400008004088
:1022700070477047FEE701684A69D24352050FD4A0
:102280006FF480624A61002140F8301F20224273BF
:102290008173026942F004020261017301207047F8
:1022A000002070472DE9F843044600680D46DDE93B
:1022B000089701689846164641F4807101604B46C4
:1022C00000224FF001112046009700F06BF848B152
:1022D00020680068C00502D54FF400702064032018
:1022E000BDE8F883216805F0FE0008613B464A46D8
:1022F0001549204600F09EF888B920684169806938
:1023000000903A464946204600F0F2F848B1206C69
:10231000042804D12068016841F4007101600120A3
:10232000DEE7F5B2B8F1010F09D02168300A086183
:102330003A464946204600F0DBF80028E7D12068FD
:1023400005610020CCE700000200010070B51646D0
:102350000D4604461EE02046FFF78DFF08B1012020
:1023600070BD681C16D0FEF793FF801BA84200D8F2
:1023700085B920684069C04340070BD5002044F868
:10238000300F20216173A073216941F02001216188
:102390002073E4E720684069C0434007DBD4002095
:1023A00070BD00002DE9F047984617460D460446DB
:1023B000C1F30746DDF820902AE000BFB8F1FF3FE7
:1023C00026D0FEF765FFA0EB0901414502D8B8F120
:1023D000000F1DD12068012E16D0806925EA00006B
:1023E0000004000C12D00020B84211D1002044F8A3
:1023F000300F20216173A073216941F02001216118
:1024000020730120BDE8F0874069E7E70120EBE792
:102410002068012E0AD0806925EA00000004000C23
:1024200006D00020B842C9D00020EBE74069F3E7AE
:102430000120F7E72DE9F047984616460D46044679
:102440004FF000094FF0200AC1F3074723E020684E
:102450004069C043400515D42068016841F400710B
:10246000016021686FF480604861C4F8309084F89E
:102470003DA084F83E90216C41F00401216484F871
:102480003C9021E0701C06D0FEF702FFA0EB080094
:10249000B04203D816B1012F1FD021E02068012FD0
:1024A00015D0806925EA00000004000C18D000BF98
:1024B00044F8309F84F80DA084F80E90216941F013
:1024C0002001216184F80C900120BDE8F08740696B
:1024D00025EA00000004000CEAD12068406901E010
:1024E0002068806925EA00000004000CAFD1ECE709
:1024F00070B516460D4604461EE02046FFF7BBFEAB
:1025000008B1012070BD681C16D0FEF7C1FE801B0B
:10251000A84200D885B920684069C04300060BD5A1
:10252000002044F8300F20216173A073216941F02D
:10253000200121612073E4E720684069C043000660
:10254000DBD4002070BD00003EB500211148009191
:1025500001910F4A029102600124816004730175A8
:102560004FF460220461C2614160FEF71BFB08B1B9
:10257000FEF75EFA0920CDE90004072002906946C3
:102580000448FEF757FA002801D0FEF751FA3EBD85
:1025900000240140E0010020094808B5416941F0EC
:1025A000010141614069002200F0010000901146E4
:1025B0000B20FFF763F8BDE808400B20FFF750B889
:1025C0000010024070B586B000241C4800940194AD
:1025D00002940394816941F010018161816901F0E5
:1025E00010010491816941F020018161816901F04C
:1025F00020010491816941F004018161816901F048
:1026000004010491816941F00801816180690C4EE7
:1026100000F008004FF4005504900022294630468F
:10262000FEF730FE01200095CDE901040220039061
:1026300069463046FEF736FD06B070BD0010024018
:10264000001001400D4810B50B4901600C49416074
:1026500000214FF480428160C0E903124161816131
:10266000C1610162FEF71AFE002803D0BDE81040E8
:10267000FEF7DEB910BD00000054004054020020F7
:10268000A086010010B586B000241848009401947B
:102690000294039404941449059401604721C0E90D
:1026A000011442F20F71C0E903148021C0E9054111
:1026B000FFF732FB08B1FEF7BBF94FF480500090F2
:1026C00069460A48FFF7AAFB08B1FEF7B1F904947E
:1026D00004A906480594FFF7EBFA002801D0FEF79D
:1026E000A7F906B010BD0000002C0140A802002090
:1026F00010B58EB000240794089409940A940B94A2
:102700001C2168460C94FDF726FD1E484FF08041C1
:1027100001600221C0E9011440F22B11C0E9031449
:102720008461FFF7F9FA08B1FEF782F94FF480509F
:10273000079007A91348FFF771FB08B1FEF778F976
:102740001048FFF718FD08B1FEF772F90B940BA9BA
:102750000C480C94FFF7ACFA08B1FEF769F9602059
:1027600000909620CDE901040022694605480494B2
:10277000FFF79BFC08B1FEF75BF90248FFF770FC1E
:102780000EB010BDF0020020FEE7FEE708B50948D4
:102790000068FDF708FE02460B4607A10B4800F053
:1027A00055FA00201023094A0146009000F09AF8DB
:1027B00008BD000004000020766F6C746167653A04
:1027C00025332E30666D562020000000300000209A
:1027D00070B5002404F1B000C0B200F0AFF80020E2
:1027E00000F0ACF8102000F0A9F80025002000F05F
:1027F000B7F86D1CEDB2802DF8D3641CE4B2082C40
:10280000E8D370BD70B5C820FEF73AFC044D002433
:10281000285D00F093F8641CE4B2172CF8D370BD67
:102820001800002010B50446B031C8B200F086F898
:10283000102040EA141000F081F804F00F00BDE809
:10284000104000F07BB800002DE9F047203A00244A
:10285000089E0F468146D5B27F2803D900208F1CE1
:102860008146FFB2102B394612D0FFF7DBFF1B4920
:1028700005EB450001EB4005285D0EB1C043C0B239
:1028800000F06EF8641CE4B2062CF5D3BDE8F087C6
:10289000FFF7C8FFDFF8488004EB051118F80100C6
:1028A0000EB1C043C0B200F05BF8641CE4B2082C67
:1028B000F2D37F1CF9B24846FFF7B4FF0024474625
:1028C00004EB05103844007A0EB1C043C0B200F0EA
:1028D00047F8641CE4B2082CF2D3D7E7FA350008B5
:1028E000223800082DE9F8431E461746894604465B
:1028F0000025DDF8208014E0334649462046CDF817
:102900000080FFF7A1FF0C2E10D00834E4B27A2C1F
:1029100001D90C2E0CD0782C01D9102E08D06D1CAA
:10292000EDB27A5D002AE7D1BDE8F883A41DEDE79A
:1029300009F10100002400F0FF09F0E701B584B0BF
:1029400001214FF4807204A88DE807000B46002295
:1029500078210248FEF766FD05B000BD5402002054
:1029600001B584B001214FF4807204A88DE80700FE
:102970000B46402278210248FEF754FD05B000BD09
:102980005402002070477047FEF712BE30B593B076
:1029900028216846FDF7DFFB14210AA8FDF7DBFBC1
:1029A000002501200F9510951195010412958DE8D1
:1029B000230004904FF4E010CDE90810022407949E
:1029C0006846FEF7CFFF08B172B6FEE70AA90F20EE
:1029D00081E831004FF48060CDE90D0502210AA89D
:1029E000FEF7F4FE08B172B6FEE74FF40040119016
:1029F0000F940FA8FEF774FE002801D072B6FEE710
:102A000013B030BD704700000148FFF776BA0000F0
:102A1000A8020020F0B50268164B174C174D4FF076
:102A20008047984205D0B84203D0A04201D0A842C6
:102A300003D122F070064A683243984205D0B8426A
:102A400003D0A04201D0A84203D122F44074CA6846
:102A500022434C6922F08002224302608A68C262EB
:102A60000A688262984201D10969016301214161CA
:102A7000F0BD0000002C01400004004000080040B0
:102A800010B501F01F030121046A99408C430462D0
:102A9000016A9A401143016210BD10B5846842EA90
:102AA000032224F47F440A432243826010BD8268DB
:102AB00022F070020A4342F0070181607047000073
:102AC00030B5036A026A22F0010202624268846938
:102AD00024F073050C682C4323F002058B682B430C
:102AE0000A4DA8420BD123F00805CB6822F44072AE
:102AF0002B434D6923F0040315438A692A4342603E
:102B0000846149684163036230BD0000002C0140CC
:102B100030B5026A036A23F01003036243688469D4
:102B20000D6824F4E64444EA05248D6822F020026E
:102B300042EA05120B4DA8420ED1CD6822F0800268
:102B400042EA05124D6923F4406343EA85038D6927
:102B500022F0400243EA850343608461496881634F
:102B6000026230BD002C014030B5036A026A22F4D3
:102B7000807202624268C46923F4007324F0730512
:102B80000C682C438D6843EA05230C4DA8420ED1F6
:102B9000CD6823F4006343EA05234D6922F44052D3
:102BA00042EA05128D6923F4806342EA051242600D
:102BB000C4614968C163036230BD0000002C01405C
:102BC00030B5046A026A22F4805202624268C36924
:102BD0000D6823F4E64343EA05238D6824F400548A
:102BE00044EA0534064DA84204D14D6922F48042DE
:102BF00042EA85124260C36149680164046230BDE3
:102C0000002C014010B5036A046A24F00104046238
:102C1000846924F0F00444EA021423F00A020A430F
:102C20008461026210BD10B5036A046A24F01004C6
:102C30000462846923F0A00324F4704444EA02325D
:102C400043EA01118261016210BDFEE70FB4084B37
:102C500010B504A902AA039800F0EEF8044602A9F0
:102C6000002000F06CFC204610BC5DF814FB000056
:102C70003F3500080907090E002804DB00F1E020B9
:102C800080F80014704700F00F0000F1E02080F899
:102C9000141D704702E008C8121F08C1002AFAD1AB
:102CA00070477047002001E001C1121F002AFBD1CC
:102CB000704700002DE9FF5F82B00021DDE904309C
:102CC000020DDDF840B0034318D044F61050A2F2D4
:102CD000FF3242431514119801281FD0A5EB0B00B9
:102CE000401C5FEA000A4FF000064E4FDFF83891B3
:102CF000B046504615D5CAF1000413E011980124DE
:102D00004AA3012801D16FEA0B010298119AC0E988
:102D10000031C0E9024206B0BDE8F09FCBF10000EF
:102D2000DFE704460021404A491842EB0450CDE950
:102D3000001012E0E00707D032463B4640464946C5
:102D4000FDF784FA8046894632463B4610461946CE
:102D5000FDF77CFA06460F466410002CEAD1DDE947
:102D60000401DDE90023BAF1000F06DAFDF76EFA7F
:102D700042464B46FDF76AFA05E0FDF7C5FC4246C0
:102D80004B46FDF7C1FC04460E460022284BFDF7DA
:102D900043FD03D84FF0FF30014607E00022254BEA
:102DA00020463146FDF709FCFDF71DFD102409E022
:102DB000002C0ADB0A220023FDF73AFB039B30328A
:102DC0001A55641E50EA0102F2D1641C039AC4F140
:102DD00011031444119A012A03D0012208430DD192
:102DE0000AE0084304D000204FF0110B119072E765
:102DF000A3EB0B056D1E0DE05B4504DD4FF00002FB
:102E000005F1010504E003DA4FF00002A5F1010528
:102E1000002AECD002981199C0E90231C0E90045BE
:102E200079E70000000014400000F03F300000008F
:102E30000000F0430000E03F2DE9FF4F95B09A46B7
:102E4000884606460025EEE1252877D1002427464E
:102E5000F94A0121039400E0044316F8013F203BA6
:102E600001FA03F01042F7D130782A2811D06FF020
:102E70002F033078A0F13002092A16D8039A44F0C3
:102E8000020402EB820203EB42021044761C039020
:102E9000EFE758F8042B0392002A03DA504244F477
:102EA0000054039044F00204761C30782E2816D18A
:102EB00016F8010F44F004042A280DD06FF02F02F9
:102EC0003078A0F13003092B09D807EB870302EB18
:102ED0004303C718761CF3E758F8047B761C307858
:102EE0006C280FD006DC4C2817D068280DD06A2833
:102EF00014D104E0742810D07A280FD10DE044F4E6
:102F000000140AE044F4801401E044F440147278A0
:102F1000824202D104F58014761C761C3078662833
:102F20000BD013DC582877D009DC002875D0452851
:102F3000F6D04628F4D047281AD193E118E0632848
:102F400035D0642879D0652812D18BE1702873D0F0
:102F500008DC6728F1D069286FD06E280DD06F2863
:102F600006D1ACE073282CD0752874D0782853D0C3
:102F70005246179990476D1C54E1C4F30250022841
:102F800009D003280DD0D8F8001004280DD00D600A
:102F900008F1040846E1D8F80010EA17C1E9005228
:102FA000F6E7D8F800100D80F2E70D70F0E718F89A
:102FB000041B8DF8001000208DF80100EB46012065
:102FC00003E058F804BB4FF0FF3061074FF00001F9
:102FD00002D40DE009F101018946B9420FDA8145B9
:102FE000F8DB1BF809100029F4D108E009F1010110
:102FF00089468142FADB1BF809100029F6D10398B3
:103000005346A0EB090721463846179A00F080FA8C
:10301000284400EB090507E044E008E10DE01BF857
:10302000010B524617999047B9F10109F7D253465F
:1030300021463846179AF2E039E00A21C4F30252D9
:103040004FF0000B0091022A06D058F8040BC1176C
:10305000032A09D00AE023E008F1070020F0070264
:10306000F2E80201904605E000B2C117042A01D13E
:1030700040B2C117002906DA0A460021404261EB3E
:1030800002012D2202E0220504D52B228DF8042016
:10309000012203E0E20701D02022F7E7914657E042
:1030A0000A2100E010214FF0000B00910BE01021ED
:1030B0004FF0000B44F004040827009103E00820BF
:1030C0004FF0000B0090C4F30252022A05D058F8CA
:1030D000040B0021032A08D008E008F1070020F0C3
:1030E0000702F2E80201904603E080B2042A00D110
:1030F000C0B24FF0000922072AD53278702A07D0D3
:10310000DDF800C08CF0100C5CEA0B0C05D00EE072
:1031100040228DF80420012208E050EA010306D085
:1031200030238DF804308DF8052002229146009B53
:1031300083F0080353EA0B030AD150EA010201D1DC
:10314000620705D530228DF804204FF001097F1E5B
:103150003278582A04D039A20C920CAA02920BE0C1
:103160003BA2F9E75B46009AFDF762F90C9B9B5C7A
:10317000029A521E0292137050EA0102F2D1029892
:1031800004A9081A00F1200B600702D524F480344A
:1031900000E001275F4502DDA7EB0B0000E0002007
:1031A00000EB0B01009003984944401A0390E003A0
:1031B00006D453462146179A039800F0A9F905440E
:1031C000002706E001A85246C05D179990476D1C84
:1031D0007F1C4F45F6DBE0030CD553462146179A7A
:1031E000039800F095F9054404E030205246179901
:1031F00090476D1C0099481E00900029F5DC08E0FE
:103200000298029952460078491C029117999047FA
:103210006D1CBBF10001ABF1010BF1DC5BE100F0D7
:1032200065F90544761C307800287FF40DAE19B09E
:103230002846BDE8F08F0000092801003031323304
:1032400034353637383961626364656600000000E2
:1032500030313233343536373839414243444546CC
:1032600000000000600700D4062708F1070020F0E6
:103270000700F0E80223804603F0004C5FEA0C00F0
:1032800001D097A009E0200501D596A005E0E00750
:1032900001D095A001E0AFF24C001390307823F0FC
:1032A000004365280CD006DC452809D046281DD0EF
:1032B00047287FD13BE0662818D067287AD136E0CE
:1032C0000021112F01DB112000E0781CCDE9000165
:1032D00004A90CA8FFF7EEFCDDE90D010C9A4FF0F4
:1032E000000B07F10109109200914EE04FF00040F1
:1032F0000097CDE9011004A90CA8FFF7DBFCDDE97C
:103300000D020C9B0F994FF0000B91461093009209
:1033100011B9791C00EB0109B7EB090003D4C0F126
:10332000FF3B07F10109A9EB0700019042E0012FE3
:1033300000DA01270021112F01DD112000E03846BD
:10334000CDE9000104A90CA8FFF7B4FCDDE90D01EB
:103350000C9A00914FF0000BB946109221070FD440
:10336000009A4A4503DA914601E0A9F10109B9F151
:10337000010F05DD109AA9F10101515C3029F4D04B
:10338000B84202DA10F1040F03DA0121CDE901108D
:1033900010E0002803DC8344A9EB000102E0411C9B
:1033A000494500DD8946A0EB0B00401C01904FF021
:1033B00000400290200705D40198484502DB4FF0F9
:1033C000FF30019000208DF84B0002980DF14B0763
:1033D000B0F1004F25D002200C902B200D900298C8
:1033E00000280CDA404202902D200D9007E00A21BF
:1033F0000298FDF707F83031029007F8011D0C998B
:10340000481E0C900029F2DC02980028EFD1791EAA
:103410000D980870307800F0200040F0450007F863
:10342000020D11A8C01BC01D02901398007800B1B6
:10343000012000EB0901019801EBE07102980144C1
:103440000398401A401E0390E00306D453462146D9
:10345000179A039800F05CF805441398007818B1A7
:103460005246179990476D1CE00323D553462146D9
:10347000179A039800F04CF805441BE0BBF1000FCD
:1034800007DB0098584504DD1098179910F80B00D9
:1034900001E0179930205246904701980BF1010B3B
:1034A000401E05F10105019004D12E2052461799C6
:1034B00090476D1CB9F10001A9F10109DEDC05E0BE
:1034C00017F8010B5246179990476D1C0299481E38
:1034D00002900029F4DC53462146179A03989EE691
:1034E0002D0000002B000000200000002DE9F0411D
:1034F000044600251E461746880404D405E03946D4
:103500002020B0476D1C641EF9D52846BDE8F08127
:103510002DE9F041044600251E469046C80301D51A
:10352000302700E02027880404D505E041463846CE
:10353000B0476D1C641EF9D52846BDE8F0810A68C5
:10354000531C0B6010707047074810B50068FCF7FB
:103550002AFF4FF03332054BFCF778FEFCF704FFEF
:1035600003490968486310BD040000203333E33F7A
:10357000F0020020FEF724F8FFF708FAFFF722F820
:10358000FFF70AF8FEF7E0FFFFF77CF8FFF7B0F867
:10359000FFF758F8FFF736F9FFF71AF90848FEF772
:1035A00011FC00210748FEF715FE64220649074872
:1035B000FDF7D0FBFFF7EAF8FFF7C6FFFAE70000D8
:1035C000A8020020F002002050000020E0010020AE
:1035D000010202030405060708090A0B0C0D0E0F71
:1035E00010100000000000000000010203040607A4
:1035F00008090000000001020304000000000000B0
:103600000000002F000000000700070000147F14D6
:103610007F1400242A7F2A120062640813230036D4
:103620004955225000000503000000001C22410003
:10363000000041221C000014083E08140008083E47
:103640000808000000A06000000808080808000042
:1036500060600000002010080402003E5149453E11
:103660000000427F4000004261514946002141452F
:103670004B31001814127F10002745454539003C96
:103680004A49493000017109050300364949493664
:1036900000064949291E0000363600000000563653
:1036A0000000000814224100001414141414000037
:1036B0004122140800020151090600324959513EC5
:1036C000007C1211127C007F49494936003E41417D
:1036D0004122007F4141221C007F49494941007F2E
:1036E00009090901003E4149497A007F0808087F1D
:1036F0000000417F4100002040413F01007F08144D
:103700002241007F40404040007F020C027F007F4A
:103710000408107F003E4141413E007F090909062F
:10372000003E4151215E007F091929460046494962
:1037300049310001017F0101003F4040403F001F2F
:103740002040201F003F4038403F006314081463AE
:1037500000070870080700615149454300007F4198
:10376000410000552A552A55000041417F000004C0
:1037700002010204004040404040000001020400F9
:10378000002054545478007F48444438003844445E
:10379000442000384444487F0038545454180008EA
:1037A0007E0901020018A4A4A47C007F0804047808
:1037B0000000447D4000004080847D00007F102890
:1037C00044000000417F4000007C04180478007C25
:1037D0000804047800384444443800FC24242418A5
:1037E0000018242418FC007C0804040800485454E1
:1037F000542000043F444020003C4040207C001CFA
:103800002040201C003C4030403C0044281028440C
:10381000001CA0A0A07C004464544C441414141454
:103820001414000000000000000000000000000070
:103830000000000000F8000000000000003330002D
:10384000000000100C06100C060000000000000034
:10385000000040C07840C0784000043F04043F04AA
:103860000400007088FC08300000001820FF211EB2
:103870000000F008F000E018000000211C031E21E9
:103880001E0000F00888700000001E212324192764
:10389000211010160E0000000000000000000000C3
:1038A0000000000000E018040200000000071820DB
:1038B000400000020418E00000000040201807004B
:1038C0000000404080F0804040000202010F0102F1
:1038D0000200000000F0000000000101011F0101D2
:1038E0000100000000000000000080B07000000037
:1038F00000000000000000000000000101010101C3
:103900000101000000000000000000303000000055
:10391000000000000000806018040060180601002C
:10392000000000E010080810E000000F1020201038
:103930000F00001010F8000000000020203F2020A1
:103940000000007008080888700000302824222138
:1039500030000030088888483000001820202011EE
:103960000E000000C02010F8000000070424243FCF
:10397000240000F808888808080000192120201178
:103980000E0000E0108888180000000F11202011A0
:103990000E0000380808C83808000000003F00008A
:1039A00000000070880808887000001C2221212275
:1039B0001C0000E010080810E00000003122221175
:1039C0000F00000000C0C000000000000030300008
:1039D0000000000000800000000000008060000087
:1039E00000000000804020100800000102040810C0
:1039F00020004040404040404000040404040404CF
:103A0000040000081020408000000020100804027C
:103A10000100007048080808F0000000003036017E
:103A20000000C030C828E810E0000718272423143D
:103A30000B000000C038E0000000203C23020227F9
:103A4000382008F8888888700000203F2020201146
:103A50000E00C03008080808380007182020201081
:103A6000080008F808080810E000203F2020201077
:103A70000F0008F88888E8081000203F2020232045
:103A8000180008F88888E8081000203F200003008C
:103A90000000C03008080838000007182020221E47
:103AA000020008F808000008F808203F2101012161
:103AB0003F20000808F8080800000020203F2020D0
:103AC000000000000808F8080800C08080807F001F
:103AD000000008F888C028180800203F2001263878
:103AE000200008F8080000000000203F20202020CF
:103AF000300008F8F800F8F80800203F003F003FC9
:103B0000200008F830C00008F808203F20000718FF
:103B10003F00E01008080810E0000F1020202010DF
:103B20000F0008F808080808F000203F21010101F3
:103B30000000E01008080810E0000F182424385096
:103B40004F0008F8888888887000203F2000030C08
:103B50003020007088080808380000382021212211
:103B60001C00180808F8080818000000203F200072
:103B7000000008F808000008F808001F2020202096
:103B80001F000878880000C83808000007380E01B8
:103B90000000F80800F80008F800033C0700073CA4
:103BA0000300081868808068180820302C03032C54
:103BB00030200838C800C83808000000203F200026
:103BC000000010080808C8380800203826212020E6
:103BD0001800000000FE020202000000007F4040CA
:103BE0004000000C30C0000000000000000106385A
:103BF000C00000020202FE000000004040407F00C2
:103C000000000000040202020400000000000000A6
:103C100000000000000000000000808080808080A4
:103C2000808000020204000000000000000000008C
:103C300000000000808080800000001924222222E1
:103C40003F2008F8008080000000003F1120201174
:103C50000E000000008080800000000E1120202057
:103C60001100000000808088F800000E1120201054
:103C70003F200000808080800000001F222222223E
:103C80001300008080F0888888180020203F2020C2
:103C900000000000808080808000006B94949493EA
:103CA000600008F8008080800000203F2100002094
:103CB0003F2000809898000000000020203F202036
:103CC0000000000000809898000000C08080807F85
:103CD000000008F8000080808000203F24022D3082
:103CE0002000000808F8000000000020203F2020ED
:103CF00000008080808080808000203F20003F2066
:103D0000003F8080008080800000203F2100002054
:103D10003F200000808080800000001F20202020A5
:103D20001F00808000808000000080FFA120201103
:103D30000E000000008080808000000E112020A076
:103D4000FF80808080008080800020203F21200034
:103D5000010000008080808080000033242424241F
:103D60001900008080E0808000000000001F2020FB
:103D700000008080000000808000001F20202010B4
:103D80003F20808080000080808000010E30080687
:103D9000010080800080008080800F300C030C3098
:103DA0000F0000808000808080000020312E0E31C6
:103DB0002000808080000080808080818E701806C6
:103DC000010000808080808080000021302C222132
:103DD000300000000000807C020200000000003F74
:103DE00040400002027C800000000040403F000094
:103DF000000000000000FF00000000000000FF00C5
:103E000000000000243E00080000002030000000F8
:103E1000942C0008543E00083000002008070000E1
:103E2000A42C0008000000000000000001000000B9
:103E300010000000000000000024F400AED580A8AF
:103E40003FD30040A1C8DA1281CFD9F1DB40A4A64C
:043E50008D14AF001E
:04000005080000ED02
:00000001FF
